:020000040800F2
:10400000000002206D480008E1470008E947000869
:10401000F1470008F94700080148000800000000C7
:104020000000000000000000000000000948000837
:104030001748000800000000254800083348000821
:10404000BD480008BD480008BD480008BD4800083C
:10405000BD480008BD480008BD480008BD4800082C
:10406000BD480008BD480008BD480008BD4800081C
:10407000BD480008BD480008BD480008BD4800080C
:10408000BD480008BD480008BD4800080000000009
:10409000000000000000000000000000BD48000813
:1040A000BD480008BD480008BD480008BD480008DC
:1040B000BD480008BD480008BD480008BD480008CC
:1040C000BD480008BD480008BD480008BD480008BC
:1040D000BD480008BD480008BD48000800000000B9
:1040E000BD480008BD480008BD48000800000000A9
:1040F000000000000000000000000000BD480008B3
:1041000000000000BD480008BD480008BD48000888
:10411000000000000000000000000000000000009F
:10412000BD480008BD480008BD480008BD4800085B
:10413000BD48000800000000000000000000000072
:10414000000000000000000000000000BD48000862
:10415000BD480008BD480008BD480008BD4800082B
:10416000BD480008BD480008000000000000000035
:10417000000000000000000000000000000000003F
:1041800000000000BD480008000000000000000022
:08419000BD480008BD4800080D
:1041980010B5054C237833B9044B13B10448AFF379
:1041A80000800123237010BD0C00002000000000D7
:1041B800385E000808B5034B1BB103490348AFF349
:1041C800008008BD0000000010000020385E0008D4
:1041D80053B94AB9002908BF00281CBF4FF0FF3166
:1041E8004FF0FF3000F06AB9ADF1080C6DE904CE6C
:1041F80000F006F8DDF804E0DDE9022304B07047BA
:104208002DE9F047089D0C46002B4ED194468C456D
:104218008646B2FA82F262D94AB1C2F120039140CD
:1042280020FA03F30CFA02FC194300FA02FE4FEAE3
:104238001C471FFA8CF6B1FBF7F44FEA1E4307FB45
:10424800141143EA014304FB06F199420AD91CEB15
:10425800030304F1FF3080F01281994240F20F818C
:10426800023C6344591A1FFA8EF3B1FBF7F007FBBF
:10427800101143EA014300FB06F69E420AD91CEBE3
:10428800030300F1FF3180F0FC809E4240F2F98088
:10429800634402389B1B40EA044000211DB1D3400F
:1042A8000022C5E90032BDE8F0878B4205D90DB17F
:1042B800C5E9000100210846F5E7B3FA83F10029B2
:1042C80046D1A34202D39042C0F0F080861A64EB34
:1042D80003030120002DE6D0C5E90063E3E7002AC7
:1042E80040F09080A1EB0C044FEA1C481FFA8CF7B1
:1042F8000121B4FBF8F64FEA1E4308FB164443EAD3
:10430800044307FB06F0984208D91CEB030306F1A7
:10431800FF3402D2984200F2CD8026461C1A1FFABA
:104328008EF3B4FBF8F008FB104443EA044300FBA7
:1043380007F79F4208D91CEB030300F1FF3402D2B0
:104348009F4200F2B0802046DB1B40EA0640A5E70A
:10435800C1F120068B4022FA06F71F4320FA06FC1B
:1043680004FA01F343EA0C03F44000FA01F8380CAC
:104378004FEA1349B4FBF0FE1FFA87FC00FB1E440A
:1043880049EA04440EFB0CF9A14502FA01F20AD9E4
:104398003C190EF1FF3A80F08480A14540F28180FB
:1043A800AEF1020E3C44A4EB09041FFA83F9B4FBF6
:1043B800F0F300FB134449EA044403FB0CFCA44556
:1043C80007D93C1903F1FF3067D2A44565D9023BF0
:1043D8003C4443EA0E40A0FB0293A4EB0C049C422D
:1043E800CE469C4651D34ED055B1B8EB0E0364EB84
:1043F8000C0404FA06F6CB401E43CC40C5E9006421
:10440800002150E7C2F1200320FA03F10CFA02FC64
:1044180024FA03F394400C434FEA1C4800FA02FEC6
:104428001FFA8CF7B3FBF8F008FB1031230C43EAB2
:10443800014300FB07F1994208D91CEB030300F183
:10444800FF362CD299422AD9023863445B1AA4B2A7
:10445800B3FBF8F108FB113344EA034401FB07F30B
:10446800A34208D91CEB040401F1FF3613D2A3427E
:1044780011D902396444E41A41EA004139E7044693
:10448800F0E6084606E7C845AED2B9EB020E63EB84
:10449800070C0138A8E73146EDE7034699E73046AF
:1044A800D4E7D6467FE7634402384DE706462346FD
:1044B80008460FE7023E634430E700BF704700BF7D
:1044C80080B500AF00F0F8F900F010F800F0A0F89F
:1044D80000F074F82021044800F007FD4FF4FA704A
:1044E80000F05CFA00BFF5E70000024080B594B028
:1044F80000AF07F1200330220021184601F06CFCC0
:1045080007F10C0300221A605A609A60DA601A6197
:104518000023BB60274B1B6C264A43F0805313646F
:10452800244B1B6C03F08053BB60BB6800237B608B
:10453800214B1B68204A43F4404313601E4B1B6801
:1045480003F440437B607B6802233B620123FB62E8
:1045580010233B630223BB630023FB6308233B64F4
:1045680040237B640223BB640423FB6407F120031C
:10457800184600F0D5FC0346002B01D000F0B6F831
:104588000F23FB6002233B6190237B614FF4805330
:10459800BB610023FB6107F10C030021184600F002
:1045A80037FF0346002B01D000F0A0F800BF5037BA
:1045B800BD4680BD003802400070004080B500AFA5
:1045C800114B124A1A60104B4FF4E1325A600E4BED
:1045D80000229A600C4B0022DA600B4B00221A6111
:1045E800094B0C225A61084B00229A61064B0022A3
:1045F800DA61054801F02CF90346002B01D000F0E0
:1046080075F800BF80BD00BF2800002000440040AE
:1046180080B58AB000AF07F1140300221A605A600F
:104628009A60DA601A6100233B612D4B1B6B2C4AA0
:1046380043F0040313632A4B1B6B03F004033B6131
:104648003B690023FB60264B1B6B254A43F0800324
:104658001363234B1B6B03F08003FB60FB68002391
:10466800BB601F4B1B6B1E4A43F0010313631C4BBB
:104678001B6B03F00103BB60BB6800237B60184B16
:104688001B6B174A43F002031363154B1B6B03F0B4
:1046980002037B607B6800222021124800F00CFC9A
:1046A8004FF400537B614FF40413BB610023FB619B
:1046B80007F1140319460C4800F07AFA20237B61AD
:1046C8000123BB610023FB6100233B6207F1140354
:1046D8001946044800F06CFA00BF2837BD4680BD73
:1046E80000380240000002400008024080B400AFD9
:1046F80072B600BF00BFFDE780B582B000AF0023EF
:104708007B60104B5B6C0F4A43F4804353640D4B42
:104718005B6C03F480437B607B6800233B60094B40
:104728001B6C084A43F080531364064B1B6C03F060
:1047380080533B603B68072000F006FA00BF08374B
:10474800BD4680BD0038024080B58AB000AF7860B1
:1047580007F1140300221A605A609A60DA601A613D
:104768007B681B68194A93422BD100233B61184B85
:104778001B6C174A43F400331364154B1B6C03F48A
:1047880000333B613B690023FB60114B1B6B104AF4
:1047980043F0010313630E4B1B6B03F00103FB6033
:1047A800FB680C237B610223BB610023FB610323AD
:1047B8003B6207237B6207F114031946054800F0A2
:1047C800F7F900BF2837BD4680BD00BF0044004050
:1047D800003802400000024080B400AF00BFFDE78F
:1047E80080B400AF00BFFDE780B400AF00BFFDE7B5
:1047F80080B400AF00BFFDE780B400AF00BFFDE7A5
:1048080080B400AF00BFBD465DF8047B704780B43C
:1048180000AF00BFBD465DF8047B704780B400AFB1
:1048280000BFBD465DF8047B704780B500AF00F05F
:1048380095F800BF80BD000080B400AF074BD3F8E7
:104848008830064A43F47003C2F88830034B044AA0
:104858009A6000BFBD465DF8047B704700ED00E03C
:1048680000400008DFF834D0FFF7E6FF0C480D4998
:104878000D4A002302E0D458C4500433C4188C42B3
:10488800F9D30A4A0A4C002301E013600432A24219
:10489800FBD301F0A9FAFFF713FE704700000220CE
:1048A800000000200C000020785E00080C000020AA
:1048B80074000020FEE7000080B500AF0E4B1B68B7
:1048C8000D4A43F4007313600B4B1B680A4A43F408
:1048D80080631360084B1B68074A43F480731360B6
:1048E800032000F031F9002000F008F8FFF704FF7A
:1048F8000023184680BD00BF003C024080B582B04E
:1049080000AF7860124B1A68124B1B7819464FF4A7
:104918007A73B3FBF1F3B2FBF3F3184600F03BF9FB
:104928000346002B01D001230EE07B680F2B0AD829
:10493800002279684FF0FF3000F011F9064A7B68D1
:104948001360002300E0012318460837BD4680BDE8
:1049580000000020080000200400002080B400AF00
:10496800064B1B781A46064B1B681344044A13600F
:1049780000BFBD465DF8047B704700BF08000020FB
:104988007000002080B400AF034B1B681846BD467A
:104998005DF8047B704700BF7000002080B584B0CC
:1049A80000AF7860FFF7EEFFB8607B68FB60FB68DC
:1049B800B3F1FF3F05D00A4B1B781A46FB68134436
:1049C800FB6000BFFFF7DEFF0246BB68D31AFA6838
:1049D8009A42F7D800BF00BF1037BD4680BD00BF60
:1049E8000800002080B485B000AF78607B6803F0D1
:1049F8000703FB600C4BDB68BB60BA684FF6FF032C
:104A08001340BB60FB681A02BB68134343F0BF63E3
:104A180043F40033BB60044ABB68D36000BF14375B
:104A2800BD465DF8047B704700ED00E080B400AF40
:104A3800044BDB681B0A03F007031846BD465DF804
:104A4800047B704700ED00E080B483B000AF0346FC
:104A58003960FB7197F90730002B0ADB3B68DAB243
:104A68000C4997F907301201D2B20B4483F800239E
:104A78000AE03B68DAB20849FB7903F00F03043B0C
:104A88001201D2B20B441A7600BF0C37BD465DF84E
:104A9800047B704700E100E000ED00E080B489B0DD
:104AA80000AFF860B9607A60FB6803F00703FB6148
:104AB800FB69C3F10703042B28BF0423BB61FB690F
:104AC8000433062B02D9FB69033B00E000237B611A
:104AD8004FF0FF32BB6902FA03F3DA43BB681A40AE
:104AE8007B699A404FF0FF317B6901FA03F3D943A0
:104AF8007B680B40134318462437BD465DF8047B9A
:104B08007047000080B582B000AF78607B68013BD9
:104B1800B3F1807F01D301230FE00A4A7B68013B90
:104B280053600F214FF0FF30FFF78EFF054B002237
:104B38009A60044B07221A60002318460837BD46BE
:104B480080BD00BF10E000E080B582B000AF7860A3
:104B58007868FFF747FF00BF0837BD4680BD80B5BE
:104B680086B000AF0346B9607A60FB7300237B61AF
:104B7800FFF75CFF78617A68B9687869FFF78EFF9C
:104B8800024697F90F3011461846FFF75DFF00BF40
:104B98001837BD4680BD80B582B000AF78607868B0
:104BA800FFF7B0FF034618460837BD4680BD000032
:104BB80080B489B000AF7860396000237B6100233E
:104BC8003B610023BB610023FB6159E10122FB69C2
:104BD80002FA03F37B613B681B687A6913403B6107
:104BE8003A697B699A4240F048813B685B6803F008
:104BF8000303012B05D03B685B6803F00303022B1A
:104C080030D17B689B68BB61FB695B00032202FAB9
:104C180003F3DB43BA691340BB613B68DA68FB699D
:104C28005B0002FA03F3BA691343BB617B68BA6994
:104C38009A607B685B68BB610122FB6902FA03F337
:104C4800DB43BA691340BB613B685B681B0903F02F
:104C58000102FB6902FA03F3BA691343BB617B687B
:104C6800BA695A603B685B6803F00303032B17D0EB
:104C78007B68DB68BB61FB695B00032202FA03F314
:104C8800DB43BA691340BB613B689A68FB695B0008
:104C980002FA03F3BA691343BB617B68BA69DA6045
:104CA8003B685B6803F00303022B23D1FB69DA0836
:104CB8007B68083253F82230BB61FB6903F00703B5
:104CC8009B000F2202FA03F3DB43BA691340BB616E
:104CD8003B681A69FB6903F007039B0002FA03F3B8
:104CE800BA691343BB61FB69DA087B680832B969A2
:104CF80043F822107B681B68BB61FB695B000322D9
:104D080002FA03F3DB43BA691340BB613B685B6893
:104D180003F00302FB695B0002FA03F3BA69134369
:104D2800BB617B68BA691A603B685B6803F440330F
:104D3800002B00F0A2800023FB60574B5B6C564AA7
:104D480043F480435364544B5B6C03F48043FB602F
:104D5800FB68524AFB699B08023352F82330BB6157
:104D6800FB6903F003039B000F2202FA03F3DB4302
:104D7800BA691340BB617B68494A934219D07B6882
:104D8800484A934213D07B68474A93420DD07B68C8
:104D9800464A934207D07B68454A934201D104238F
:104DA80008E0072306E0032304E0022302E00123CE
:104DB80000E00023FA6902F0030292009340BA6906
:104DC8001343BB613549FB699B080233BA6941F853
:104DD8002320384B9B68BB613B69DB43BA691340AE
:104DE800BB613B685B6803F48013002B03D0BA698E
:104DF8003B691343BB612F4ABB6993602D4BDB684A
:104E0800BB613B69DB43BA691340BB613B685B68C4
:104E180003F40013002B03D0BA693B691343BB6149
:104E2800244ABB69D360234B5B68BB613B69DB43A6
:104E3800BA691340BB613B685B6803F40033002B1D
:104E480003D0BA693B691343BB611A4ABB69536013
:104E5800184B1B68BB613B69DB43BA691340BB61F4
:104E68003B685B6803F48033002B03D0BA693B6965
:104E78001343BB610F4ABB691360FB690133FB61D4
:104E8800FB690F2B7FF6A2AE00BF00BF2437BD46DB
:104E98005DF8047B704700BF0038024000380140CD
:104EA800000002400004024000080240000C0240DA
:104EB80000100240003C014080B483B000AF78602D
:104EC8000B467B8013467B707B78002B03D07A8857
:104ED8007B689A6103E07B881A047B689A6100BF4B
:104EE8000C37BD465DF8047B704780B485B000AFD1
:104EF80078600B467B807B685B69FB607A88FB681F
:104F080013401A04FB68D9437B880B401A437B681B
:104F18009A6100BF1437BD465DF8047B70470000F6
:104F280080B586B000AF78607B68002B01D1012383
:104F380067E27B681B6803F00103002B75D0884B80
:104F48009B6803F00C03042B0CD0854B9B6803F083
:104F58000C03082B12D1824B5B6803F48003B3F572
:104F6800800F0BD17E4B1B6803F40033002B5BD002
:104F78007B685B68002B57D1012342E27B685B6842
:104F8800B3F5803F06D1764B1B68754A43F48033EE
:104F980013601DE07B685B68B3F5A02F0CD1704BE4
:104FA8001B686F4A43F4802313606D4B1B686C4A7F
:104FB80043F4803313600BE0694B1B68684A23F4A1
:104FC80080331360664B1B68654A23F480231360A3
:104FD8007B685B68002B13D0FFF7D4FC386108E0CE
:104FE800FFF7D0FC02463B69D31A642B01D903238F
:104FF80007E25B4B1B6803F40033002BF0D014E08E
:10500800FFF7C0FC386108E0FFF7BCFC02463B69CB
:10501800D31A642B01D90323F3E1514B1B6803F422
:105028000033002BF0D100E000BF7B681B6803F061
:105038000203002B63D04A4B9B6803F00C03002B40
:105048000BD0474B9B6803F00C03082B1CD1444B37
:105058005B6803F48003002B16D1414B1B6803F0F7
:105068000203002B05D07B68DB68012B01D00123EC
:10507800C7E13B4B1B6823F0F8027B681B69DB0028
:10508800374913430B603AE07B68DB68002B20D07C
:10509800344B01221A60FFF775FC386108E0FFF70E
:1050A80071FC02463B69D31A022B01D90323A8E1FC
:1050B8002B4B1B6803F00203002BF0D0284B1B6816
:1050C80023F0F8027B681B69DB00254913430B605A
:1050D80015E0244B00221A60FFF754FC386108E001
:1050E800FFF750FC02463B69D31A022B01D9032370
:1050F80087E11B4B1B6803F00203002BF0D17B6890
:105108001B6803F00803002B36D07B685B69002B13
:1051180016D0154B01221A60FFF734FC386108E0FD
:10512800FFF730FC02463B69D31A022B01D903234F
:1051380067E10B4B5B6F03F00203002BF0D01BE021
:10514800094B00221A60FFF71DFC38610EE0FFF7DB
:1051580019FC02463B69D31A022B07D9032350E1F5
:105168000038024000004742800E4742884B5B6F80
:1051780003F00203002BEAD17B681B6803F00403E9
:10518800002B00F097800023FB75814B1B6C03F00C
:105198008053002B0FD10023BB607D4B1B6C7C4AD6
:1051A80043F0805313647A4B1B6C03F08053BB604D
:1051B800BB680123FB75774B1B6803F48073002BD6
:1051C80018D1744B1B68734A43F480731360FFF75C
:1051D800D9FB386108E0FFF7D5FB02463B69D31AD3
:1051E800022B01D903230CE16A4B1B6803F480737B
:1051F800002BF0D07B689B68012B06D1644B1B6F9A
:10520800634A43F0010313671CE07B689B68052B26
:105218000CD15F4B1B6F5E4A43F0040313675C4B72
:105228001B6F5B4A43F0010313670BE0584B1B6F7E
:10523800574A23F001031367554B1B6F544A23F059
:10524800040313677B689B68002B15D0FFF79AFB54
:1052580038610AE0FFF796FB02463B69D31A41F230
:105268008832934201D90323CBE0494B1B6F03F0EB
:105278000203002BEED014E0FFF784FB38610AE04C
:10528800FFF780FB02463B69D31A41F2883293420A
:1052980001D90323B5E03E4B1B6F03F00203002B3B
:1052A800EED1FB7D012B05D1394B1B6C384A23F01D
:1052B800805313647B689B69002B00F0A180344BFA
:1052C8009B6803F00C03082B5CD07B689B69022B5E
:1052D80041D1314B00221A60FFF754FB386108E0D6
:1052E800FFF750FB02463B69D31A022B01D903236F
:1052F80087E0274B1B6803F00073002BF0D17B6815
:10530800DA697B681B6A1A437B685B6A9B011A43EC
:105318007B689B6A5B08013B1B041A437B68DB6A5A
:105328001B061B4913434B601B4B01221A60FFF7F6
:1053380029FB386108E0FFF725FB02463B69D31AD1
:10534800022B01D903235CE0114B1B6803F00073A7
:10535800002BF0D054E0104B00221A60FFF712FB2C
:10536800386108E0FFF70EFB02463B69D31A022BAF
:1053780001D9032345E0064B1B6803F00073002B9B
:10538800F0D13DE07B689B69012B07D1012338E010
:105398000038024000700040600047421B4B5B68C9
:1053A800FB607B689B69012B28D0FB6803F48002B3
:1053B8007B68DB699A4221D1FB6803F03F027B6876
:1053C8001B6A9A421AD1FA6847F6C07313407A6882
:1053D800526A9201934211D1FB6803F440327B6810
:1053E8009B6A5B08013B1B049A4207D1FB6803F0E8
:1053F80070627B68DB6A1B069A4201D0012300E0D9
:10540800002318461837BD4680BD00BF003802404B
:1054180080B584B000AF786039607B68002B01D11B
:105428000123CCE0684B1B6803F007033A689A42F3
:105438000CD9654B3A68D2B21A70634B1B6803F0FB
:1054480007033A689A4201D00123B8E07B681B68D9
:1054580003F00203002B20D07B681B6803F00403D1
:10546800002B05D0594B9B68584A43F4E05393608E
:105478007B681B6803F00803002B05D0534B9B681F
:10548800524A43F460439360504B9B6823F0F00208
:105498007B689B684D4913438B607B681B6803F0EE
:1054A8000103002B44D07B685B68012B07D1474B75
:1054B8001B6803F40033002B19D101237FE07B68BC
:1054C8005B68022B03D07B685B68032B07D13F4BDB
:1054D8001B6803F00073002B09D101236FE03B4BDD
:1054E8001B6803F00203002B01D1012367E0374B4F
:1054F8009B6823F003027B685B68344913438B6025
:10550800FFF740FAF8600AE0FFF73CFA0246FB684A
:10551800D31A41F28832934201D903234FE02B4B2F
:105528009B6803F00C027B685B689B009A42EBD196
:10553800254B1B6803F007033A689A420CD2224BAA
:105548003A68D2B21A70204B1B6803F007033A6816
:105558009A4201D0012332E07B681B6803F0040300
:10556800002B08D0194B9B6823F4E0527B68DB685A
:10557800164913438B607B681B6803F00803002BF4
:1055880009D0124B9B6823F460427B681B69DB00DF
:105598000E4913438B6000F021F802460B4B9B68C1
:1055A8001B0903F00F030A49CB5C22FA03F3094AEB
:1055B8001360094B1B681846FFF7A0F9002318462B
:1055C8001037BD4680BD00BF003C02400038024095
:1055D800505E000800000020040000202DE9B04FB4
:1055E80094B000AF00237B640023FB6400233B647A
:1055F8000023BB64794B9B6803F00C03082B0DD088
:10560800082B00F2E180002B02D0042B03D0DBE052
:10561800734BBB64DBE0734BBB64D8E06F4B5B68D8
:1056280003F03F037B646D4B5B6803F48003002B3E
:1056380063D06A4B5B689B090022BB63FA63BB6B50
:10564800C3F308033B6300237B63D7E90C45224679
:105658002B464FF000004FF00001590141EAD2619A
:10566800500102460B462146511A3961294663EB1F
:1056780001037B614FF000024FF00003D7E904AB50
:1056880059468B01514643EA916351468A01514676
:10569800B2EB0108594663EB01094FF000024FF0E5
:1056A80000034FEAC90343EA58734FEAC802904619
:1056B8009946234618EB0303BB602B4649EB0303CB
:1056C800FB604FF000024FF00003D7E9024529467E
:1056D8004B02214643EAD15321464A021046194655
:1056E8007B6C0022BB62FA62D7E90A23FEF770FDE1
:1056F80002460B461346FB6458E0384B5B689B092F
:10570800002218461146C0F308033B6200237B625F
:10571800D7E9088942464B464FF000004FF0000198
:10572800590141EAD261500102460B464146B2EBAB
:10573800010A494663EB010B4FF000024FF00003EA
:105748004FEA8B1343EA9A634FEA8A12B2EB0A04D0
:1057580063EB0B054FF000024FF00003EB0043EA48
:105768005473E20014461D464346E3183B604B461B
:1057780045EB03037B604FF000024FF00003D7E9CD
:10578800004529468B02214643EA915321468A0265
:10579800104619467B6C0022BB61FA61D7E90623E3
:1057A800FEF716FD02460B461346FB640B4B5B687F
:1057B8001B0C03F0030301335B003B64FA6C3B6C86
:1057C800B2FBF3F3BB6402E0054BBB6400BFBB6CE8
:1057D80018465037BD46BDE8B08F00BF00380240BC
:1057E8000024F40000127A0080B400AF034B1B6859
:1057F8001846BD465DF8047B704700BF00000020D6
:1058080080B500AFFFF7F0FF0246054B9B689B0A87
:1058180003F007030349CB5C22FA03F3184680BD63
:1058280000380240605E000880B500AFFFF7DCFF7B
:105838000246054B9B685B0B03F007030349CB5CEF
:1058480022FA03F3184680BD00380240605E000863
:1058580080B582B000AF78607B68002B01D101234E
:1058680042E07B6893F84130DBB2002B06D17B68BD
:10587800002283F840207868FEF766FF7B682422C0
:1058880083F841207B681B68DA687B681B6822F410
:105898000052DA60786800F02BF87B681B681A6998
:1058A8007B681B6822F490421A617B681B685A69FE
:1058B8007B681B6822F02A025A617B681B68DA68D9
:1058C8007B681B6842F40052DA607B6800225A64E5
:1058D8007B68202283F841207B68202283F84220BD
:1058E8007B6800225A63002318460837BD4680BDEE
:1058F8002DE9B04FC0B000AFC7F8F400D7F8F430C6
:105908001B681B6923F44050D7F8F430D968D7F8DE
:10591800F4301A6840EA01031361D7F8F4309A6842
:10592800D7F8F4301B691A43D7F8F4305B691A4387
:10593800D7F8F430DB691343C7F8F830D7F8F430F8
:105948001B68DB6823F4164121F00C01D7F8F4300A
:105958001A68D7F8F8300B43D360D7F8F4301B68CF
:105968005B6923F44070D7F8F4309969D7F8F430BC
:105978001A6840EA01035361D7F8F4301A688F4B6C
:105988009A4205D0D7F8F4301A688D4B9A4204D160
:10599800FFF74AFFC7F8FC0003E0FFF731FFC7F83D
:1059A800FC00D7F8F430DB69B3F5004F40F00C8108
:1059B800D7F8FC300022C7F8E830C7F8EC20D7E960
:1059C8003A4522462B469118B9655B41FB65D7E9F4
:1059D8001623214612EB0108294643EB01094FF033
:1059E80000024FF000034FEAC90343EA58734FEA35
:1059F800C80290469946234618EB0303C7F8E030DF
:105A08002B4649EB0303C7F8E430D7F8F4305B685A
:105A18000022C7F8D830C7F8DC20D7E936120B4681
:105A2800DB183B65134642EB03037B65D7E9142378
:105A3800D7E93801FEF7CCFB02460B46614BA3FBC6
:105A480002235B091C01D7F8FC300022C7F8D030CC
:105A5800C7F8D420D7E9348942464B469118B9642F
:105A68005B41FB64D7E91223414612EB010A494620
:105A780043EB010B4FF000024FF000034FEACB035A
:105A880043EA5A734FEACA0292469B4643461AEBC8
:105A98000303C7F8C8304B464BEB0303C7F8CC30B9
:105AA800D7F8F4305B680022C7F8C030C7F8C420C4
:105AB800D7E930120B46DB183B64134642EB03036D
:105AC8007B64D7E91023D7E93201FEF781FB024650
:105AD8000B4611463B4BA3FB01235B09642202FBE7
:105AE80003F3CB1ADB0003F13202364BA3FB02238C
:105AF8005B095B0003F4F8731C44D7F8FC30002200
:105B0800C7F8B830C7F8BC20D7E92E8942464B46BB
:105B18009118B9635B41FB63D7E90E2341465118DD
:105B2800396349464B417B634FF000024FF0000355
:105B3800D7E90CAB5946CB00514643EA517351465D
:105B4800CA0010461946034642469B18C7F8B030AB
:105B58004B460A4642EB0303C7F8B430D7F8F43093
:105B68005B680022C7F8A830C7F8AC20D7E92A122A
:105B78000B46DB18BB62134642EB0303FB62D7E913
:105B88000A23D7E92C01FEF723FB02460B460D4BEF
:105B9800A3FB02135B09642101FB03F3D31ADB00A7
:105BA8003233084AA2FB03235B0903F00702D7F844
:105BB800F4301B6822449A6006E100BF00100140DF
:105BC800001401401F85EB51D7F8FC300022C7F8BC
:105BD800A030C7F8A420D7E9288942464B46911837
:105BE80039625B417B62D7E908234146541849462C
:105BF80043EB01054FF000024FF00003EB0043EACE
:105C08005473E20014461D464346E318C7F898301B
:105C18004B4645EB0303C7F89C30D7F8F4305B6874
:105C28000022C7F89030C7F894204FF000024FF0D8
:105C38000003D7E9244529468B00214643EA91739E
:105C480021468A00D7E92601FEF7C2FA02460B462A
:105C5800604BA3FB02235B091C01D7F8FC30002230
:105C6800C7F88830C7F88C20D7E9228942464B46C6
:105C78009118B9615B41FB61D7E906234146511888
:105C8800396149464B417B614FF000024FF00003F8
:105C9800D7E904AB5946CB00514643EA5173514604
:105CA800CA0010461946034642469B18C7F880307A
:105CB8004B460A4642EB0303C7F88430D7F8F43062
:105CC8005B680022BB67FA674FF000024FF00003E1
:105CD800D7E91E8949468B00414643EA91734146FC
:105CE8008A00D7E92001FEF773FA02460B461146EF
:105CF800384BA3FB01235B09642202FB03F3CB1A95
:105D08001B013233334AA2FB03235B0903F0F00380
:105D18001C44D7F8FC3000223B677A67D7E91C8916
:105D280042464B469118B9605B41FB60D7E90223B4
:105D380041465118396049464B417B604FF000029B
:105D48004FF00003D7E900AB5946CB00514643EA70
:105D580051735146CA0010461946034642469B18DD
:105D6800BB664B460A4642EB0303FB66D7F8F430A2
:105D78005B6800223B667A664FF000024FF0000332
:105D8800D7E9188949468B00414643EA9173414651
:105D98008A00D7E91A01FEF71BFA02460B460D4B9B
:105DA800A3FB02135B09642101FB03F3D31A1B0154
:105DB8003233084AA2FB03235B0903F00F02D7F82A
:105DC800F4301B6822449A6000BF07F58077BD460F
:105DD800BDE8B08F1F85EB5102440346934200D1C2
:105DE800704703F8011BF9E770B50D4D0D4C641BA6
:105DF800A4100026A64209D10B4D0C4C00F018F84F
:105E0800641BA4100026A64205D170BD55F8043BBA
:105E180098470136EEE755F8043B98470136F2E714
:105E2800705E0008705E0008705E0008745E00080E
:105E3800F8B500BFF8BC08BC9E467047F8B500BF6F
:085E4800F8BC08BC9E4670473F
:105E5000000000000000000001020304060708091A
:085E6000000000000102030430
:085E6800A0E3FF7F0100000030
:045E7000BD41000828
:045E74009941000848
:0C5E78000024F4001000000001000000F5
:040000050800486D3A
:00000001FF
